{
 "cells": [
  {
   "cell_type": "code",
   "execution_count": 2,
   "metadata": {},
   "outputs": [],
   "source": [
    "############## PLEASE RUN THIS CELL FIRST! ###################\n",
    "\n",
    "# import everything and define a test runner function\n",
    "from importlib import reload\n",
    "from helper import run\n",
    "import ecc\n",
    "import helper\n",
    "import script\n",
    "import tx"
   ]
  },
  {
   "cell_type": "markdown",
   "metadata": {
    "tags": []
   },
   "source": [
    "### Exercise 1\n",
    "\n",
    "Write the version parsing part of the `parse` method that we've defined. To do this properly, you'll have to convert 4 bytes into a Little-Endian integer.\n",
    "\n",
    "#### Make [this test](/edit/code-ch05/tx.py) pass: `tx.py:TxTest:test_parse_version`"
   ]
  },
  {
   "cell_type": "code",
   "execution_count": 3,
   "metadata": {},
   "outputs": [
    {
     "name": "stderr",
     "output_type": "stream",
     "text": [
      ".\n",
      "----------------------------------------------------------------------\n",
      "Ran 1 test in 0.003s\n",
      "\n",
      "OK\n"
     ]
    }
   ],
   "source": [
    "# Exercise 1\n",
    "\n",
    "reload(tx)\n",
    "run(tx.TxTest(\"test_parse_version\"))"
   ]
  },
  {
   "cell_type": "code",
   "execution_count": 4,
   "metadata": {},
   "outputs": [
    {
     "name": "stdout",
     "output_type": "stream",
     "text": [
      "3045022100ed81ff192e75a3fd2304004dcadb746fa5e24c5031ccfcf21320b0277457c98f02207a986d955c6e0cb35d446a89d3f56100f4d7f67801c31967743a9c8e10615bed01 0349fc4e631e3624a545de3f89f5d8684c7b8138bd94bdd531d2e213bf016b278a\n"
     ]
    }
   ],
   "source": [
    "from io import BytesIO\n",
    "from script import Script\n",
    "script_hex = ('6b483045022100ed81ff192e75a3fd2304004dcadb746fa5e24c5031ccfcf21320b0277457c98f02207a986d955c6e0cb35d446a89d3f56100f4d7f67801c31967743a9c8e10615bed01210349fc4e631e3624a545de3f89f5d8684c7b8138bd94bdd531d2e213bf016b278a')\n",
    "stream = BytesIO(bytes.fromhex(script_hex))\n",
    "script_sig = Script.parse(stream)\n",
    "print(script_sig)"
   ]
  },
  {
   "cell_type": "markdown",
   "metadata": {},
   "source": [
    "### Exercise 2\n",
    "\n",
    "Write the inputs parsing part of the `parse` method in `Tx` and the `parse` method for `TxIn`.\n",
    "\n",
    "#### Make [this test](/edit/code-ch05/tx.py) pass: `tx.py:TxTest:test_parse_inputs`"
   ]
  },
  {
   "cell_type": "code",
   "execution_count": 5,
   "metadata": {},
   "outputs": [
    {
     "name": "stderr",
     "output_type": "stream",
     "text": [
      ".\n",
      "----------------------------------------------------------------------\n",
      "Ran 1 test in 0.003s\n",
      "\n",
      "OK\n"
     ]
    }
   ],
   "source": [
    "# Exercise 2\n",
    "\n",
    "reload(tx)\n",
    "run(tx.TxTest(\"test_parse_inputs\"))"
   ]
  },
  {
   "cell_type": "markdown",
   "metadata": {},
   "source": [
    "### Exercise 3\n",
    "\n",
    "Write the outputs parsing part of the `parse` method in `Tx` and the `parse` method for `TxOut`.\n",
    "\n",
    "#### Make [this test](/edit/code-ch05/tx.py) pass: `tx.py:TxTest:test_parse_outputs`"
   ]
  },
  {
   "cell_type": "code",
   "execution_count": 6,
   "metadata": {},
   "outputs": [
    {
     "name": "stderr",
     "output_type": "stream",
     "text": [
      ".\n",
      "----------------------------------------------------------------------\n",
      "Ran 1 test in 0.002s\n",
      "\n",
      "OK\n"
     ]
    }
   ],
   "source": [
    "# Exercise 3\n",
    "\n",
    "reload(tx)\n",
    "run(tx.TxTest(\"test_parse_outputs\"))"
   ]
  },
  {
   "cell_type": "markdown",
   "metadata": {},
   "source": [
    "### Exercise 4\n",
    "\n",
    "Write the Locktime parsing part of the `parse` method in `Tx`.\n",
    "\n",
    "#### Make [this test](/edit/code-ch05/tx.py) pass: `tx.py:TxTest:test_parse_locktime`"
   ]
  },
  {
   "cell_type": "code",
   "execution_count": 7,
   "metadata": {},
   "outputs": [
    {
     "name": "stderr",
     "output_type": "stream",
     "text": [
      ".\n",
      "----------------------------------------------------------------------\n",
      "Ran 1 test in 0.003s\n",
      "\n",
      "OK\n"
     ]
    }
   ],
   "source": [
    "# Exercise 4\n",
    "\n",
    "reload(tx)\n",
    "run(tx.TxTest(\"test_parse_locktime\"))"
   ]
  },
  {
   "cell_type": "markdown",
   "metadata": {
    "tags": []
   },
   "source": [
    "### Exercise 5\n",
    "\n",
    "What is the ScriptSig from the second input, ScriptPubKey from the first output and the amount of the second output for this transaction?\n",
    "\n",
    "```\n",
    "010000000456919960ac691763688d3d3bcea9ad6ecaf875df5339e148a1fc61c6ed7a069e0100\n",
    "00006a47304402204585bcdef85e6b1c6af5c2669d4830ff86e42dd205c0e089bc2a821657e951\n",
    "c002201024a10366077f87d6bce1f7100ad8cfa8a064b39d4e8fe4ea13a7b71aa8180f012102f0\n",
    "da57e85eec2934a82a585ea337ce2f4998b50ae699dd79f5880e253dafafb7feffffffeb8f51f4\n",
    "038dc17e6313cf831d4f02281c2a468bde0fafd37f1bf882729e7fd3000000006a473044022078\n",
    "99531a52d59a6de200179928ca900254a36b8dff8bb75f5f5d71b1cdc26125022008b422690b84\n",
    "61cb52c3cc30330b23d574351872b7c361e9aae3649071c1a7160121035d5c93d9ac96881f19ba\n",
    "1f686f15f009ded7c62efe85a872e6a19b43c15a2937feffffff567bf40595119d1bb8a3037c35\n",
    "6efd56170b64cbcc160fb028fa10704b45d775000000006a47304402204c7c7818424c7f7911da\n",
    "6cddc59655a70af1cb5eaf17c69dadbfc74ffa0b662f02207599e08bc8023693ad4e9527dc42c3\n",
    "4210f7a7d1d1ddfc8492b654a11e7620a0012102158b46fbdff65d0172b7989aec8850aa0dae49\n",
    "abfb84c81ae6e5b251a58ace5cfeffffffd63a5e6c16e620f86f375925b21cabaf736c779f88fd\n",
    "04dcad51d26690f7f345010000006a47304402200633ea0d3314bea0d95b3cd8dadb2ef79ea833\n",
    "1ffe1e61f762c0f6daea0fabde022029f23b3e9c30f080446150b23852028751635dcee2be669c\n",
    "2a1686a4b5edf304012103ffd6f4a67e94aba353a00882e563ff2722eb4cff0ad6006e86ee20df\n",
    "e7520d55feffffff0251430f00000000001976a914ab0c0b2e98b1ab6dbf67d4750b0a56244948\n",
    "a87988ac005a6202000000001976a9143c82d7df364eb6c75be8c80df2b3eda8db57397088ac46\n",
    "430600\n",
    "```"
   ]
  },
  {
   "cell_type": "code",
   "execution_count": 5,
   "metadata": {},
   "outputs": [
    {
     "name": "stdout",
     "output_type": "stream",
     "text": [
      "304402207899531a52d59a6de200179928ca900254a36b8dff8bb75f5f5d71b1cdc26125022008b422690b8461cb52c3cc30330b23d574351872b7c361e9aae3649071c1a71601 035d5c93d9ac96881f19ba1f686f15f009ded7c62efe85a872e6a19b43c15a2937 \n",
      "\n",
      "OP_DUP OP_HASH160 ab0c0b2e98b1ab6dbf67d4750b0a56244948a879 OP_EQUALVERIFY OP_CHECKSIG \n",
      "\n",
      "40000000\n"
     ]
    }
   ],
   "source": [
    "# Exercise 5\n",
    "\n",
    "from io import BytesIO\n",
    "from tx import Tx\n",
    "\n",
    "hex_transaction = '010000000456919960ac691763688d3d3bcea9ad6ecaf875df5339e148a1fc61c6ed7a069e010000006a47304402204585bcdef85e6b1c6af5c2669d4830ff86e42dd205c0e089bc2a821657e951c002201024a10366077f87d6bce1f7100ad8cfa8a064b39d4e8fe4ea13a7b71aa8180f012102f0da57e85eec2934a82a585ea337ce2f4998b50ae699dd79f5880e253dafafb7feffffffeb8f51f4038dc17e6313cf831d4f02281c2a468bde0fafd37f1bf882729e7fd3000000006a47304402207899531a52d59a6de200179928ca900254a36b8dff8bb75f5f5d71b1cdc26125022008b422690b8461cb52c3cc30330b23d574351872b7c361e9aae3649071c1a7160121035d5c93d9ac96881f19ba1f686f15f009ded7c62efe85a872e6a19b43c15a2937feffffff567bf40595119d1bb8a3037c356efd56170b64cbcc160fb028fa10704b45d775000000006a47304402204c7c7818424c7f7911da6cddc59655a70af1cb5eaf17c69dadbfc74ffa0b662f02207599e08bc8023693ad4e9527dc42c34210f7a7d1d1ddfc8492b654a11e7620a0012102158b46fbdff65d0172b7989aec8850aa0dae49abfb84c81ae6e5b251a58ace5cfeffffffd63a5e6c16e620f86f375925b21cabaf736c779f88fd04dcad51d26690f7f345010000006a47304402200633ea0d3314bea0d95b3cd8dadb2ef79ea8331ffe1e61f762c0f6daea0fabde022029f23b3e9c30f080446150b23852028751635dcee2be669c2a1686a4b5edf304012103ffd6f4a67e94aba353a00882e563ff2722eb4cff0ad6006e86ee20dfe7520d55feffffff0251430f00000000001976a914ab0c0b2e98b1ab6dbf67d4750b0a56244948a87988ac005a6202000000001976a9143c82d7df364eb6c75be8c80df2b3eda8db57397088ac46430600'\n",
    "\n",
    "# convert the hex_transaction to binary\n",
    "raw_tx = bytes.fromhex(hex_transaction)\n",
    "\n",
    "# create a stream using BytesIO\n",
    "stream = BytesIO(raw_tx)\n",
    "\n",
    "# use Tx.parse to get the transaction object.\n",
    "tx = Tx.parse(stream)\n",
    "# print(tx)\n",
    "\n",
    "# ScriptSig from second input\n",
    "second_input = tx.tx_ins[1]\n",
    "print(second_input.script_sig, '\\n')\n",
    "# ScriptPubKey from first output\n",
    "first_output = tx.tx_outs[0]\n",
    "print(first_output.script_pubkey, '\\n')\n",
    "# Amount from second output\n",
    "second_output = tx.tx_outs[1]\n",
    "print(second_output.amount)"
   ]
  },
  {
   "cell_type": "code",
   "execution_count": 6,
   "metadata": {},
   "outputs": [
    {
     "ename": "SyntaxError",
     "evalue": "parsing script failed (<string>)",
     "output_type": "error",
     "traceback": [
      "Traceback \u001b[0;36m(most recent call last)\u001b[0m:\n",
      "  File \u001b[1;32m\"/usr/local/Cellar/jupyterlab/3.1.14_1/libexec/lib/python3.9/site-packages/IPython/core/interactiveshell.py\"\u001b[0m, line \u001b[1;32m3444\u001b[0m, in \u001b[1;35mrun_code\u001b[0m\n    exec(code_obj, self.user_global_ns, self.user_ns)\n",
      "  File \u001b[1;32m\"/var/folders/zy/1x6mqtzs4ng40b_kn3gdj8ndzr7mtk/T/ipykernel_27380/498491711.py\"\u001b[0m, line \u001b[1;32m6\u001b[0m, in \u001b[1;35m<module>\u001b[0m\n    tx = Tx.parse(stream)\n",
      "  File \u001b[1;32m\"/Users/BN185068/Projects/Bitcoin/programmingbitcoin/code-ch05/tx.py\"\u001b[0m, line \u001b[1;32m124\u001b[0m, in \u001b[1;35mparse\u001b[0m\n    outputs.append(TxOut.parse(s))\n",
      "  File \u001b[1;32m\"/Users/BN185068/Projects/Bitcoin/programmingbitcoin/code-ch05/tx.py\"\u001b[0m, line \u001b[1;32m246\u001b[0m, in \u001b[1;35mparse\u001b[0m\n    script_pubkey = Script.parse(s)\n",
      "\u001b[0;36m  File \u001b[0;32m\"/Users/BN185068/Projects/Bitcoin/programmingbitcoin/code-ch05/script.py\"\u001b[0;36m, line \u001b[0;32m81\u001b[0;36m, in \u001b[0;35mparse\u001b[0;36m\u001b[0m\n\u001b[0;31m    raise SyntaxError('parsing script failed')\u001b[0m\n",
      "\u001b[0;36m  File \u001b[0;32m\"<string>\"\u001b[0;36m, line \u001b[0;32munknown\u001b[0m\n\u001b[0;31mSyntaxError\u001b[0m\u001b[0;31m:\u001b[0m parsing script failed\n"
     ]
    }
   ],
   "source": [
    "from io import BytesIO\n",
    "from tx import Tx\n",
    "hex_txn = '0100000000010124cafd3d494f6c709cd5b5f33a2f326bd633c388acbbb3a2c2b64e7a84e819cd0500000000ffffffff062da800000000000017a914ac608c1d10ba08ccbdbc804011e501d2f13cba7e8749a703000000000017a9141cf29f39a2b9dced64a62cd7c0038273253b3f8987abd70200000000001600140e2543c763f29746d6cb0393cf7b5f44021a33ef949d0b000000000017a91413dc47d97ac455e80f0f88c7a5a8716adac25a3f87072f00000000000017a91402883cfb25d4c4da8fadcded4544b2fe2bf45a38873d79d68700000000160014601f9c9ea2c2b3bcb32b87e3b314df292720e7f7024830450221009c065a77c57b66ca1e11884711632f23e831e941bc237758769d3ae1f7247a8702205af7e498f8210bd282f26adfb9a9ab1d0fbbeb867e2d0a8198487a9cc807eee50121034085134fa091ae6b6c0c6eda885e2a0328b4abe70f7129050793f2b32a1e10d800000000'\n",
    "raw_tx = bytes.fromhex(hex_txn)\n",
    "stream = BytesIO(raw_tx)\n",
    "tx = Tx.parse(stream)"
   ]
  },
  {
   "cell_type": "markdown",
   "metadata": {},
   "source": [
    "### Exercise 6\n",
    "\n",
    "Write the `fee` method for the `Tx` class.\n",
    "\n",
    "#### Make [this test](/edit/code-ch05/tx.py) pass: `tx.py:TxTest:test_fee`"
   ]
  },
  {
   "cell_type": "code",
   "execution_count": 10,
   "metadata": {},
   "outputs": [
    {
     "name": "stderr",
     "output_type": "stream",
     "text": [
      ".\n",
      "----------------------------------------------------------------------\n",
      "Ran 1 test in 0.002s\n",
      "\n",
      "OK\n"
     ]
    }
   ],
   "source": [
    "# Exercise 6\n",
    "\n",
    "import tx\n",
    "\n",
    "reload(tx)\n",
    "run(tx.TxTest(\"test_fee\"))"
   ]
  }
 ],
 "metadata": {
  "kernelspec": {
   "display_name": "Python 3",
   "language": "python",
   "name": "python3"
  },
  "language_info": {
   "codemirror_mode": {
    "name": "ipython",
    "version": 3
   },
   "file_extension": ".py",
   "mimetype": "text/x-python",
   "name": "python",
   "nbconvert_exporter": "python",
   "pygments_lexer": "ipython3",
   "version": "3.9.7"
  }
 },
 "nbformat": 4,
 "nbformat_minor": 4
}
